:060000000A128A11122809
:10000800FE00030E83120313D4000408D5000A0867
:10001800D6007F08D7000A128A11F02A0A128A111C
:10002800012E8316B7010A128A119A250A128A111B
:1000380003178D0183168C130C140C182128031335
:10004800AB01831203170C1C2D2883160313AB0175
:10005800AB0A831603132B088312031D8814031994
:1000680088108316AC01831203178C1C3F28831653
:100078000313AC01AC0A831603132C088312031D67
:100088000814031908108316AD01831203170C1DF9
:10009800512883160313AD01AD0A831603132D08E7
:1000A8008312031D0915031909118316AE01831262
:1000B80003178C1D632883160313AE01AE0A83163B
:1000C80003132E088312031D851503198511831642
:1000D800AF01831203170C1E752883160313AF0193
:1000E800AF0A831603132F088312031D85160319FD
:1000F80085128316B001831203178C1E8728831676
:100108000313B001B00A8316031330088312031DCA
:100118000516031905128316B101831203170C1F64
:10012800992883160313B101B10A83160313310802
:100138008312031D8714031987108316B2018312D3
:1001480003178C1FAB2883160313B201B20A831658
:10015800031332088312031D071403190710013013
:1001680003178D0083168C130C140C18B92803136D
:10017800B301831203170C1CC52883160313B3019C
:10018800B30A8316031333088312031D09140319D2
:1001980009108316B401831203178C1CD728831601
:1001A8000313B401B40A8316031334088312031D1E
:1001B8008914031989108316B501831203170C1DBE
:1001C800E92883160313B501B50A83160313350806
:1001D8008312031D8617031986138316B60183122B
:1001E80003178C1DFB2883160313B601B60A831662
:1001F800031336088312031D06170319061302306A
:1002080003178D0083168C130C140C1809298312FC
:100218000C080313BF000F30BF0503170C0E0F396E
:100228000313C0000F30C00506303F020318BF019A
:10023800063040020318C001430803192029350875
:100248003404031D002A3830B4003930B500EC2AD4
:100258008316B70A352A0030881C01308316A0009F
:10026800A00D8312080883162006FD3945290030A1
:10027800081C01308316A000831208088316200684
:10028800FE39200683128800352A0030091D013006
:100298008316A000A00DA00D83120908831620065E
:1002A800FB39B0290030851D01308316A000A00D50
:1002B800A00DA00D8312050883162006F7397C29A6
:1002C8000030851E01308316A000A00EA00D8312F9
:1002D800050883162006DF397C290030051E013009
:1002E8008316A000A00E8312050883162006EF3996
:1002F800200683128500352A0030871C01308316BA
:10030800A000A00D8312070883162006FD39962940
:100318000030071C01308316A000831207088316DB
:100328002006FE39200683128700352A0030091C72
:1003380001308316A0008312090883162006FE39AF
:10034800B0290030891C01308316A000A00D83124B
:10035800090883162006FD39200683128900352AEC
:100368000030861F01308316A000A00CA00C831259
:100378000608831620067F39CE290030061F013073
:100388008316A000A00EA00DA00D831206088316E8
:100398002006BF39200683128600352A0530400220
:1003A8000318D829C00A352AC001352A05303F026A
:1003B8000318E029BF0A352ABF01352A8316371CDE
:1003C800EB29831240080319352AC003352A831202
:1003D8003F080319352ABF03352A8316371CFA2923
:1003E800053083124002031CD629352A05308312B2
:1003F8003F02031CDE29352A4208003A0319F12975
:10040800103A03198C29023A0319C129013A031930
:10041800D229073A0319DA29343A0319B429083AD0
:1004280003192C29183A03196429603A0319712908
:10043800303A03199A29083A03193B29183A03193B
:100448004929F03A0319E229103A03198029303A68
:100458000319A529083A03192F29183A0319562907
:10046800352A38308312B4003930B50003178D01AE
:100478000313080C01398316A000831207080139F9
:100488008316A10007300310A10DFF3E031D472A64
:100498008312070C01398316A20006300310A20D3F
:1004A800FF3E031D522A8312050E01398316A3004D
:1004B80005300310A30DFF3E031D5D2A8312050EB0
:1004C8008316A400240C0139A500250EF039A500D7
:1004D8008312050C8316A600A60C260C0139A7006A
:1004E8000310A70D0310A70D0310A70D8312090C05
:1004F8008316A800280C0139A9000310A90D0310C0
:10050800A90D8312080801398316AA002A072904AD
:10051800270425042304220421042004831203173A
:100528008C0083168C130C158B1355308D00AA3054
:100538008D008C148B178C189F2A013083128D0024
:100548000313090801398316A0008312060E8316C7
:10055800A100A10C210C0139A2000310A20D031067
:10056800A20D0310A20D8312060D060D0139831684
:10057800A3000310A30D0310A30D8312090C013966
:100588008316A400240723042204200483120317DB
:100598008C0083168C130C158B1355308D00AA30E4
:1005A8008D008C148B178C18D72A023083128D007B
:1005B8000313400EF0393F0403178C0083168C1385
:1005C8000C158B1355308D00AA308D008C148B17A9
:1005D80083120313C30120290B1DF72AA6240A122C
:1005E8008A110B112B2B8B1C092B91013F08053C01
:1005F800CF004F07BD004008053CCF004F07BE00A5
:1006080036230A128A118B102B2B8C1C102B3623A5
:100618000A128A118C102B2B0B1C2B2B57230A1216
:100628008A11060E0139CF00060ED000500C013990
:10063800D100060CD200520C0139D300060C013946
:10064800530551054F05031D2A2B08240B10570885
:10065800FF0056088A0055088400540E8300FE0ED9
:100668007E0E09003D0803193E2B8510BD1B412B4A
:10067800BD03412B8514FF30BD003E080319492BEB
:100688000510BE1B4C2BBE034C2B0514FF30BE00BF
:1006980035083404031908000130B4020030031C83
:1006A800B503B50208003A08F0003B08F1003C0821
:1006B800F2007108F2007008F100F0017008F30010
:1006C8007108F4007208F5000108F30701300318F7
:1006D800F4070318F507003086190130F600810188
:1006E800BA01BB01BC013008F0003108F100F20189
:1006F80075087202031D862B74087102031D862B70
:10070800730870020318FA2B3208F0003308F1005E
:10071800F20172087502031D972B71087402031DFC
:10072800972B700873020318FA2B47030319A02BA1
:100738004708023A031DC12B760BAE2B470BAE2B95
:10074800DB30C70AB2001A30B300A630B0000E3052
:10075800B1000800F608031DBE2B4708023A031D26
:10076800BE2B3B30C70AB2000B30B300FA30B000E2
:10077800B1010800C7019125080003304702031C96
:10078800F82BC70A471CD92B00300310B60DB70D3C
:10079800B80DB90D7502031DD72B04307402031D63
:1007A800D72BE33073020318361443304702031C77
:1007B80008003908C1003808C4003708C2003608E4
:1007C800C500B601B701B801B90141084405031DC8
:1007D800F42B42084505031DF42BC301C30AF52B6E
:1007E800C3019125C701080091250800F608031DDB
:1007F800002CC701C70A012CC701FF30C100C40083
:10080800C200C500C301BF2B2E30C901CA01CB01EC
:10081800CC01F1007330F000F00B102CF10B102C10
:1008280083120313060E0139F000F101060EF200DF
:10083800720C0139F300F4010310F30DF40D060CEA
:10084800F500750C0139F600F7010310F60DF70DE8
:100858000310F60DF70D060C0139F800F901031025
:10086800F80DF90D0310F80DF90D0310F80DF90D39
:1008780076087804FA0077087904FB0073087A048C
:10088800FC0074087B04FD0070087C04CD0071082E
:100898007D04CE000F30CD05CE01CD064E084D04A7
:1008A800031908000310CE0CCD0C4E084D04031993
:1008B800612CC90A0319CA0A562C88150815071588
:1008C80087116F250A128A1103196C2CCB018E2C03
:1008D80088150815071187156F250A128A1103193B
:1008E800782CCB01CB0A8E2C881508110715871593
:1008F8006F250A128A110319832C02308D2C881156
:100908000815071587156F250A128A1103198F2CE8
:100918000330CB00CC0188110811071187114B084F
:10092800F00020300310F00D0310F00D7007F100F7
:1009380049087107F200840083130008C200C3014C
:10094800C30A080000303C02031DB02CFF303B02F4
:10095800031DB02CFF303A020318B72CBA0A03194A
:10096800BB0A0319BC0AC60A4608313A031D080027
:10097800350834040319C42CC8240A128A11C62C59
:1009880088170515C6010800480801393F3E84004C
:1009980083130008F00048080139D424C80A080065
:1009A800F300881705152B2D8812081307120C2D34
:1009B8008816F22C881208130716142D88120813AB
:1009C80007128712272D8816081307128716FF2C7F
:1009D80088120817FD2C8812062D88120813071292
:1009E8008716071708160F2D88120813072D881267
:1009F8000813071287120717212D881208130712E8
:100A08001F2D8816081707121A2D8812081707169F
:100A18008712071308128717662D881608130712FE
:100A280087120713282D8812081707168712202DFA
:100A3800881208170716871607130812292D881613
:100A4800081707168716071708168713662D7008E4
:100A58000F39F100F2017208003A0319342D232DE1
:100A68007108003A0319D82C013A0319DC2C033A0F
:100A78000319DE2C013A0319E22C073A0319E72C73
:100A8800013A0319EC2C033A0319EF2C013A031924
:100A9800F12C0F3A0319F82C013A0319FB2C033AED
:100AA8000319012D013A0319052D073A0319092DD8
:100AB800013A0319112D033A0319172D013A0319A5
:100AC8001C2D232D730803196C2D88130515080098
:100AD800881705110800060E0139F000060EF1000E
:100AE800710C0139F2000310F20D060CF300730CBF
:100AF8000139F4000310F40D0310F40D060C01394C
:100B0800F5000310F50D0310F50D0310750D7404B1
:100B1800720470040F390F3A0800B630B20035304D
:100B2800B3001030B0002730B10008000317880167
:100B380089018312871388138316031388120813F5
:100B480007128712071308128713881305118510D7
:100B58000510061406168616061586148711071141
:100B6800081188118615F4250A128A118312F425B2
:100B78000A128A1188160817071687160717081603
:100B88008717881705158510051087110711081193
:100B98008811061686160615861481018316811398
:100BA8000117811281110108F839013881003E309E
:100BB80096008B160B118B150B100B168B108312CE
:100BC80012088739203892001208FC39013892003F
:100BD80083168C1483128C1012150B178B170800B0
:100BE8008810081009118511851205128710071041
:100BF8000910891086130613080036308313840001
:100C080049300A128A1139260A128A11A830A0001E
:100C18006830A1007030A200B030A3003030A400CA
:100C28005030A5009030A6001030A7006030A80012
:100C3800A030A9002030AA001230AB001330AC005D
:100C48001430AD00FF30AE00AF001030B0002730D8
:100C5800B100B630B2003530B3003830B4003930A6
:100C6800B50083010A128A11152864008001840ADC
:0A0C780004060319003404063A2EA6
:04400E0032EBFFF999
:00000001FF
